:0200000080047A
:10000300316F32D288D2A8D2AF7F00758007E580E6
:10001300134021BF001A11FA790389A011FA790953
:1000230089A011FA790C89A011FA790689A08007B1
:100033007F0080DA134035BF00F611FA790289A0F8
:1000430011FA790389A011FA790189A011FA7909C2
:1000530089A011FA790889A011FA790C89A011FAFB
:10006300790489A011FA790689A080A713409F79A2
:10007300007A003111B40A64B90008BA000575A00A
:1000830006808BB92D08BA000575A0028080B95A85
:1000930008BA000575A0030111B98708BA000575F0
:1000A300A0010111B9B408BA000575A0090111B97D
:1000B300E108BA000575A0080111B90E08BA0105D7
:1000C30075A00C0111B93B08BA010575A004011113
:1000D300E9C2D79468F9EA9401FA809CF8E975F0CB
:1000E3000AA4F9ABF0EA75F00AA42BFAE928F9EAB5
:1000F3003400FA311101787C0A758901758C3C75DD
:100103008AB0D28C308DFDC28CC28DDCEC2275900E
:10011300FFD296C29478007D018014D294C2957860
:10012300017D02800AD295C29678027D008000206C
:0901330090047A0080212091045F
:10013C007A01801A2092047A0280132093047A03A5
:10014C00800CBD000280C1BD010280C680CE315D35
:10015C0022EA75F003A4FAE824012AB40B02740015
:06016C0011FA227F0122BE
:00000001FF
